:100000000C9434000C9451000C9451000C94510049
:100010000C9451000C9451000C9451000C9451001C
:100020000C9451000C9451000C9451000C9451000C
:100030000C9451000C9451000C9451000C945100FC
:100040000C9453000C9451000C949D000C9451009E
:100050000C9451000C9451000C9451000C945100DC
:100060000C9451000C94510011241FBECFEFD8E026
:10007000DEBFCDBF11E0A0E0B1E0E6E9F2E002C0F2
:1000800005900D92AE30B107D9F721E0AEE0B1E0B6
:1000900001C01D92A935B207E1F70E94C7000C9478
:1000A00049010C9400001F920F920FB60F92112479
:1000B0002F933F938F939F93AF93BF93809155015D
:1000C00090915601A0915701B0915801309154017F
:1000D00023E0230F2D3758F50196A11DB11D209364
:1000E00054018093550190935601A0935701B0930A
:1000F00058018091500190915101A0915201B0910D
:1001000053010196A11DB11D80935001909351019F
:10011000A0935201B0935301BF91AF919F918F91E2
:100120003F912F910F900FBE0F901F90189526E8CA
:10013000230F0296A11DB11DD2CF1F920F920FB6B1
:100140000F9211242F933F938F939F93EF93FF93DD
:100150002091C60080914F0190E001968F739927FE
:1001600030914E01381741F0E0914F01F0E0E25F2D
:10017000FE4F208380934F01FF91EF919F918F91CC
:100180003F912F910F900FBE0F901F90189578946C
:1001900084B5826084BD84B5816084BD85B582608C
:1001A00085BD85B5816085BD80916E00816080933D
:1001B0006E001092810080918100826080938100A6
:1001C00080918100816080938100809180008160B6
:1001D000809380008091B10084608093B100809111
:1001E000B00081608093B00080917A008460809339
:1001F0007A0080917A00826080937A0080917A0000
:10020000816080937A0080917A00806880937A0080
:100210001092C1001092C50087E68093C40086E06A
:100220008093C20088E98093C100E0E0F1E0819111
:10023000811128C0C0E0D0E090914F0180914E0123
:100240009817D9F090914F0180914E0120E09817B6
:1002500071F0E0914E01F0E0E25FFE4F208180916D
:100260004E0190E001968F73992780934E01809103
:10027000C00085FFFCCF2093C6002097E9F20E94C2
:100280000000DACF9091C00095FFFCCF8093C600AC
:06029000CECFF894FFCF71
:0E02960048656C6C6F2C2055415254210A00B3
:00000001FF
